:020000040800F2
:10000000B0A8002099950008A19500086560000837
:10001000A5950008A7950008A99500080000000014
:10002000000000000000000000000000AB95000888
:10003000AD95000800000000AF9500089F62000821
:10004000B3950008B3950008B3950008B395000870
:10005000B3950008B3950008B3950008B395000860
:10006000B3950008B3950008B3950008B395000850
:10007000B3950008B3950008B3950008B395000840
:10008000B3950008B3950008B3950008B395000830
:10009000B3950008B3950008B3950008B395000820
:1000A000B3950008C1620008B3950008B395000835
:1000B000D5620008B3950008B3950008B395000811
:1000C000B3950008B3950008B3950008B3950008F0
:1000D000B3950008A35F0008CF5F00080360000825
:1000E000B3950008B3950008B3950008B3950008D0
:1000F000B3950008B3950008B3950008B3950008C0
:10010000B3950008AF5B0008B3950008B3950008ED
:10011000B3950008B3950008B3950008B39500089F
:10012000B3950008B3950008B3950008B39500088F
:10013000B3950008B3950008B3950008B39500087F
:10014000B3950008B3950008B3950008B39500086F
:10015000B3950008B3950008B3950008B39500085F
:10016000B3950008B3950008B3950008B39500084F
:10017000B3950008B3950008B3950008B39500083F
:10018000B3950008B3950008DFF814D01EF0DAFD2F
:100190001DF03EFB00480047EB0500081EF0E9FAA1
:1001A000B0A80020FEB442464B4654465D463EB4DD
:1001B0001DF090F93EBC90469946A246AB46FEBC67
:1001C00000F032F8704700BF80EC200B7047C0ECA5
:1001D000200B704790EC200B7047D0EC200B704741
:1001E00085460D98DDF838E00F9B5DF8042B20E97B
:1001F0000C009DE8FE1F854601BD4DF808ED0DF190
:10020000080E4DF804ED2DE9FF1F002102B46946E8
:1002100081B01EF0EAFCDDF840E012B0704700004B
:1002200074590500346F05004DF808ED0DF1080E06
:100230004DF804ED2DE9FF1F002102B4694681B09D
:100240001EF03ABD0FB438B505A800902448009AB6
:10025000049921F0EFFF0020009021481DF0E4F9FF
:1002600085B200240DE000BF40211E4809F02CF8A3
:100270000028F9D01A48015D1A4808F075FF601C83
:1002800084B2AC42EFDB38BC5DF814FB70B50446B9
:100290000D4600BF4021144809F016F80028F9D097
:1002A000E1B2114808F060FF204670BD10B5002390
:1002B0000A220121032017F0E7FC0C4908600623FD
:1002C00024220221032017F0DFFC094908600023E3
:1002D0001A460321084617F0D7FC0649086010BDEE
:1002E000580600200044004000100140000000209B
:1002F000040000200800002030B591B0054600241D
:100300002A7801A90819FDA121F062FF2044C4B296
:1003100069680A1D01A90819FAA121F059FF2044B2
:10032000C4B2696801F10F0201A90819F7A121F00F
:100330004FFF2044C4B2696809688B78696809680E
:10034000497803EB012201A90819F2A121F040FF2D
:100350002044C4B2696809688A7901A90819EFA123
:1003600021F036FF2044C4B2EF490968234601AAB0
:10037000086BEE491CF085F911B030BD10B5EC48A2
:10038000006848B90120EA490860EA49C1F88002DA
:10039000C82005F075FF0AE0E548001F0068C0436B
:1003A000E449C1F880024FF4C87005F069FF10BD40
:1003B00010B50322E0480168E04819F0D8FFE04991
:1003C00008700846007820B9D021DEA021F0F0FEA8
:1003D00005E0DB480278D221E84821F0E9FED74861
:1003E0008068D64AD2688118D4481AF0BFFAD44936
:1003F00008700846007820B9D621E1A021F0D8FE87
:1004000005E0CF480278D821EB4821F0D1FE10BD9D
:1004100030B587B0C9481AF097FAC949087008463C
:10042000007840B90021E54808F073FE8A21E4A075
:1004300021F0BEFE05E0C24802788C21EF4821F091
:10044000B7FEB9490968086B1CF012F90546B648B1
:100450000068016B68461CF00FF9DDE90001CDE989
:100460000501012413E0E1B2AF4A1268506B1CF0A1
:10047000C0FAD0E900128068CDE90212049002A807
:10048000FFF73AFF4FF4FA7005F0FAFE641CAC4235
:10049000E9DBA5490968486B1CF0D5FA9B21D8A077
:1004A00021F086FEFFF784FF4FF4FA7005F0E8FEB6
:1004B0000121C24808F02DFE07B030BDF0B585B06F
:1004C000002403A9002007F0A7F904A9002007F0E1
:1004D00009F995490968086B1CF0E3F90546E888B5
:1004E000A0F5FA700A2190FBF1F69DF80E0000903D
:1004F0009DF80D309DF80F20D1490819D1A121F0A8
:1005000067FE2044C4B29DF8120000909DF811309F
:100510009DF81020CA490819CFA121F059FE2044A6
:10052000C4B2A8880A2190FBF1F7288969882A8833
:10053000CDE900210290C24908193B463246CBA1C1
:1005400021F046FE2044C4B2BD4908196EA121F035
:100550003FFE2044C4B2D4480078401CD249087001
:10056000D24B2246B64975481AF0A1F87449087072
:100570000846007830B9CC480278B521CC4821F043
:1005800017FE05E06E480278B721CA4821F010FE38
:1005900005B0F0BD10B50122C7A1C84819F0BCFED6
:1005A000674908700846007820B9C021C4A021F02E
:1005B000FFFD03E0C221D0A021F0FAFD0B225E482E
:1005C00001685E4819F0D3FE5D490870084600785E
:1005D00020B9C6215BA021F0EBFD05E05848027868
:1005E000C821664821F0E4FD10BD10B505F0BAFE43
:1005F0004FF4FA7005F044FE4B48006809F09BFE8A
:100600004FF4FA7005F03CFEFFF7C4FF4FF4FA70A8
:1006100005F036FE44490968086B1CF045F94FF4B3
:10062000FA7005F02DFE1EE04548007838B9C24842
:10063000007820B10020C0490870FFF73FFF3A4919
:100640000968086B1CF043F930B937490968086B31
:100650001CF041F9FFF7DCFE33490968086B1CF018
:100660002CF9FFF78BFEDFE770B52F4909680868A2
:1006700018F07AF80446006881692046884778B9FE
:10068000EF21AE4821F094FD2748006830B126489C
:10069000006809F021F9054621F058FD002070BDE1
:1006A0002148006809F047FE4FF4FA7005F0E8FDB4
:1006B0001D48006809F01BFCF0B11B48006809F0F8
:1006C00016FC9F490968884216D21748006809F04D
:1006D0000EFC9C4988420FD0FC219B4821F068FD0C
:1006E0001148006830B11048006809F0F5F8054677
:1006F00021F02CFD0020D2E728E1000069643D25AF
:10070000640D0A006A3D25730D0A0000773D2573CC
:100710000D0A0000683D25640D0A00006E756D3DF0
:1007200025640D0A000000001800002000100140A0
:100730008482404200804042200000208414002037
:100740002800002046494C453A202E2E5C55736502
:10075000725C6D61696E2E6370702C204C494E4541
:100760003A2025643A2066696C65206F70656E20BA
:100770007375636365642E0D0A000000A44D0508BF
:1007800046494C453A202E2E5C557365725C6D616E
:10079000696E2E6370702C204C494E453A202564BA
:1007A0003A206C7365656B2066696C6520737563B0
:1007B0006365642E0D0A0000584D05080044004092
:1007C00046494C453A202E2E5C557365725C6D612E
:1007D000696E2E6370702C204C494E453A2025647A
:1007E0003A2066696C6520636C6F7365207375636E
:1007F000636565642021200D0A000000BC4C0508DB
:1008000046494C453A202E2E5C557365725C6D61ED
:10081000696E2E6370702C204C494E453A20256439
:100820003A206F6B20776179706F696E7420726502
:1008300063652066696E697368200D0A0000000018
:10084000041400203230253032642D253032642DDE
:100850002530326420000000253032643A253032E1
:10086000643A25303264203A2000000074656D201F
:100870003D20252D38642068756D203D20252D38BC
:100880006420434F32203D20252D386420564F43AD
:10089000203D20252D386420504D322E35203D201E
:1008A000252D3864000000003C00002024000020BA
:1008B000184C0508684C0508303A0000AC160020BA
:1008C00046494C453A202E2E5C557365725C6D612D
:1008D000696E2E6370702C204C494E453A20256479
:1008E0003A206D6F756E742073756363656564205F
:1008F00021200D0A0000000046494C453A202E2ECA
:100900005C557365725C6D61696E2E6370702C202E
:100910004C494E453A2025643A206D6F756E74201F
:10092000636F6D6520746F206E6F7468696E6720E9
:1009300021200D0A000000001C000020104D0508B9
:1009400030000020000A0103F04D050803F0CAFA48
:100950004FF4FA7005F094FC1D48006809F0C7FADE
:100960001C49884208D01A490968486810F094FF69
:100970004FF4FA7005F084FC002211461448006818
:1009800009F0A7F901208AE610B500230A22012107
:10099000032017F079F91049086006232422022168
:1009A000032017F071F90D49086000231A4603214E
:1009B000084617F069F90A4908600A4801780A48A8
:1009C00008F061FF0446094A09491CF031FF10BDD7
:1009D00018000020000A01032C0000203000002035
:1009E000340000201000002024090020000000082E
:1009F000D99800082DE9F04F2DED048B9BB0FA48F3
:100A0000006809F074FAF94988422AD00020199048
:100A10004FF00A0AF6480068159002201490002052
:100A200013901398F049CDE9000A096815AB48689E
:100A3000149A199910F0AFFE8346BBF1000F05D14F
:100A400058461BB0BDEC048BBDE8F08FE649096841
:100A50004868199911F036F84FF4FA7005F010FC57
:100A600000BFE14909680022C86811460EF023FA68
:100A70004FF4FA7005F004FC43F698244FF4FA752D
:100A800000270020189017901690D7490968086829
:100A900017F06AFE80460068C1684046884706191C
:100AA00000BF4FF4FA6005F0EBFBCF48006809F097
:100AB0001EFACE49884210D0CB490968486823F015
:100AC000EDFD012820D1C8490968486823F038FEA7
:100AD000292819D10120189023E0C34909688868A2
:100AE00016F056FA14909DF85000022809D0BE491D
:100AF0000968886816F04CFA15909DF85400032890
:100B000002D1012018900CE0B7490968086817F075
:100B10002BFE82460068C168504688474719B74295
:100B2000BFD300BF1898A0B9B2A021F041FBAE48D6
:100B3000006809F0DCF9AD49884208D0AA49096883
:100B40004868199911F0E0F9322005F099FB00206E
:100B500077E7B3A021F02CFBA3490968086817F0D8
:100B600003FE81460068C16848468847061900BFF1
:100B70004FF4FA6005F084FB9B48006809F0B7F970
:100B80009A49884217D098490968486823F086FD39
:100B900002281DD194490968486823F0D1FD0A282C
:100BA00006D091490968486823F0CAFD0B280FD187
:100BB0000120179019E08C490968886816F0E8F957
:100BC00015909DF85400032802D1012017900CE0E5
:100BD00085490968086817F0C7FD82460068C16842
:100BE000504688474719B742C2D300BF1798A8B9E3
:100BF000914821F0DDFA7C48006809F078F97B49DA
:100C0000884209D0784909684868199911F07CF937
:100C10004FF4FA7005F034FB002012E787A021F0B2
:100C2000C7FA71490968086817F09EFD1A900068B4
:100C3000C1681A98884706196B48006809F057F987
:100C40006A49884223D000BF4FF4FA6005F018FBD0
:100C500065490968486823F073FD0A2806D162498E
:100C60000968486823F06CFD0B2802D0012016901B
:100C70000CE05D490968086817F076FD8246006857
:100C8000C168504688474719B742DDD300BF564870
:100C9000006809F02CF95549884220D0524909686A
:100CA000486823F04DFD062806D14F490968486879
:100CB00023F046FD012803D066A021F079FA4DE02B
:100CC0006A4821F075FA484909684868199911F08D
:100CD0001BF94FF4FA7005F0D3FA0020B1E6424850
:100CE0000068816808A816F028F800BF40F6B83000
:100CF00005F0C6FA3C480068816801A816F01DF8A6
:100D00001C2201A90FA81EF079FCDDED130A9DED50
:100D10000C1A30EEC10AB0EEC08A00BF9DED130A76
:100D20008DED0C0A18EE100A1CF032FF41EC190B85
:100D30009FED4F0B53EC102B1CF056FFD6D99DEDB9
:100D4000130A10EE101A08461CF022FF41EC190B92
:100D500053EC192B48A021F02BFA00BF2248006861
:100D600009F0C5F82149884209D01F490968486837
:100D7000199911F0C9F840F6B83005F081FA012050
:100D80005FE62DE9F04F93B047F230544FF4FA7517
:100D90004FF0000A00201290119010900F900A203E
:100DA0000E901148006809F0A2F8104988427FD0DF
:100DB0000F48001D00680D9002200C904FF0000BB2
:100DC0000E9880B20849CDE900B009680DAB4868BB
:100DD0000C9A0F9910F0DFFC8146B9F1000F5CD13D
:100DE000484613B0BDE8F08F18000020000A010348
:100DF000A875020854616B656F6666206661696C50
:100E000065642E204D6F746F7273206661696C6526
:100E10006420746F207374617274210A00000000F2
:100E20000A5375636365737366756C2074616B65D3
:100E30006F6666210A000000044F05085665686960
:100E4000636C6520617363656E64696E672E2E2E18
:100E50000A00000056656869636C65206973206844
:100E60006F766572696E670A00000000544E0508CF
:100E70003BDF4F8D976E823F41697263726166748A
:100E800020686F766572696E6720617420252E3543
:100E9000666D21200A0000000AE0FE4909684868E2
:100EA0000F9910F00FFE4FF4FA7005F0E9F900BF4A
:100EB000F84909680022C86811460EF082F84FF41C
:100EC000FA7005F0DDF9F3490968086817F04CFC81
:100ED00007460068C16838468847061900BF4FF4C6
:100EE000FA6005F0CDF9EB48006809F000F8EA492E
:100EF000884209D0E7490968486823F021FC0C289A
:100F00000FD1012012901AE0E2490968886816F0B2
:100F10003FF80D909DF83400042802D00120129073
:100F20000DE0DC490968086817F01EFC814600687E
:100F3000C1684846884710EB050AB245CFD300BFC9
:100F40001298B8B9D5A021F033F9D248006808F05A
:100F5000CEFFD149884209D0CE49096848680F9927
:100F600010F0D2FF4FF4FA7005F08AF9002013B0A8
:100F7000BDE8F08FD5A021F01BF9C64909680868C3
:100F800017F0F2FB80460068C168404688470619A2
:100F900000BF4FF4FA6005F073F9BE48006808F02E
:100FA000A6FFBD4988421ED0BA490968486823F0A7
:100FB000C7FB0C2846D0B7490968486823F06EFB88
:100FC00002283FD0B3490968486823F0B9FB0628D6
:100FD00006D1B0490968486823F0B2FB012831D036
:100FE000012011903CE0AB490968886815F0D0FFFA
:100FF0000D909DF83400052803D1642005F040F9D8
:1010000020E000BF4FF4FA6005F03AF9A14800680B
:101010008168684615F091FE1C22694607A81EF0FB
:10102000EDFA9DED0B0AB5EEC00AF1EE10FAE9D12A
:101030009DED0B0AB5EEC00AF1EE10FA01D10120C8
:10104000119000BF93490968086817F08DFB81462D
:101050000068C1684846884710EB050AB24598D336
:1010600000BF119818B19EA021F0A2F815E0A24887
:1010700021F09EF88748006808F039FF86498842C9
:1010800009D08449096848680F9910F03DFF4FF472
:10109000FA7005F0F5F8002069E77E48006808F06E
:1010A00026FF7D49884209D07A49096848680F9926
:1010B00010F02AFF40F6B83005F0E2F8012056E7BC
:1010C0002DE9F05F2DED0A8B83460E4614461D4632
:1010D0007048006808F00BFF6F49884250D02746DF
:1010E000A9464D46D9F80000D9F8041041EC100B80
:1010F0003C463868796853EC102B1CF051FC41ECED
:10110000180BD9F80800D9F80C1041EC100BB8688E
:10111000F96853EC102B1CF043FC41EC190B9FEDCC
:10112000770B53EC102B51EC190B1CF03FFC1CF00F
:1011300073FD3060B868F96841EC100B21F084FE53
:10114000B0EE40BAF0EE60BA9FED6C0B53EC102B92
:1011500051EC180B1CF02AFC53EC1B2B1CF026FC4A
:101160001CF05AFD7060386900EE100AD9F81000C2
:1011700000EE900A30EE600A10EE100AB06056E001
:10118000A046AA465546DAF80800DAF80C1041ECF9
:10119000100B4446D8F80800D8F80C1053EC102B6C
:1011A0001CF0FEFB41EC180BDAF80000DAF8041032
:1011B00041EC100BD8F80000D8F8041053EC102BB9
:1011C0001CF0EEFB41EC190B9FED4C0B53EC102B7C
:1011D00051EC190B1CF0EAFB1CF01EFD3060D8F836
:1011E0000000D8F8041041EC100B21F02DFEB0EEF9
:1011F00040BAF0EE60BA9FED410B53EC102B51EC6E
:10120000180B1CF0D3FB53EC1B2B1CF0CFFB1CF07A
:1012100003FD7060D8F8100000EE100ADAF8100034
:1012200000EE900A30EE600A10EE100AB060BDECDD
:101230000A8BBDE8F09F30B52DED108B85B00446CC
:101240002546A86800EE100A20EE000A10EE101ADB
:1012500008461CF09DFC41EC190BE86800EE100AF2
:1012600020EE000A10EE101A08461CF091FC41EC2A
:101270001F0B53EC192B1CF0F2FA41EC1E0B9FEDE7
:10128000210B53EC102B1CF091FB41EC1D0B9FED3F
:101290001F0B3FE018000020000A01034C616E6440
:1012A000696E67206661696C65642E2041697263AE
:1012B00072616674206973207374696C6C20696E46
:1012C00020746865206169722E0A0000566568699D
:1012D000636C65206C616E64696E672E2E2E0A0049
:1012E0005375636365737366756C206C616E6469B6
:1012F0006E67210A00000000AC4E050800000040A7
:10130000A654584100000000000000C0000000008A
:101310000000F03F53EC102B1CF0A1FA41EC1A0B2B
:10132000686800EE100AA86800EE900A20EE201A05
:10133000286800EE100AE86800EE900A00EE201A15
:1013400011EE101A08461CF023FC41EC1D0B9FED1A
:10135000FE0B53EC102B1CF029FB41EC1B0B6868B7
:1013600000EE100AE86800EE900A20EE201A2868C5
:1013700000EE100AA86800EE900A00EE601A11EE66
:10138000101A08461CF004FC41EC1D0B1FED230B4A
:1013900053EC102B1CF00AFB41EC180BA86800EE74
:1013A000100AE86800EE900A20EE201A286800EE85
:1013B000100A686800EE900A00EE201A11EE101A6A
:1013C00008461CF0E5FB41EC1D0B9FEDDF0B53ECD9
:1013D000102B1CF0EBFA41EC1C0B686800EE100AB5
:1013E00020EE000A10EE101A08461CF0D1FB41EC6A
:1013F0001F0B53EC192B1CF032FA41EC1E0B1FEDA6
:101400003F0B53EC102B1CF0D1FA41EC1D0B1FEDE0
:10141000410B53EC102B1CF022FACDE900011FED1B
:10142000450B53EC102B51EC180B1CF0DDFB02D2DA
:101430001FED4A0B03E0B0EE480AF0EE680AB0EE8A
:10144000408AF0EE608A9FEDC20B53EC102B51ECFA
:10145000180B1CF0B1FB02D29FEDBD0B03E0B0EE08
:10146000480AF0EE680AB0EE408AF0EE608AB0EE0C
:10147000480AF0EE680A21F0B7F8B0EE40DAF0EE74
:1014800060DA51EC1D0B1CF0C7FB02909DED001BB8
:10149000B0EE4C0AF0EE6C0A21F0C2FBB0EE40DA7E
:1014A000F0EE60DA51EC1D0B1CF0B6FB0390B0EED1
:1014B0004A1AF0EE6A1AB0EE4B0AF0EE6B0A21F00F
:1014C000AFFBB0EE40DAF0EE60DA51EC1D0B1CF031
:1014D000A3FB04909DED020ADDED030A9DED041AC5
:1014E00005B0BDEC108B30BD1FB5044605208DF84E
:1014F00000008DF801008DF802008DF803008DF8D2
:10150000040003208DF8050005208DF806008DF8F5
:1015100007008DF808008DF809008DF80A008DF895
:101520000B008DF80C008DF80D0000231A4669465B
:10153000A06815F0E0FD1FBD00B52DED060BCBB08A
:1015400085484990322048904FF47A71489891FB31
:10155000F0F04790479800EB800040004690322121
:1015600047984843459000204490322043907B4860
:10157000006808F0BCFC7A4988422ED0794800689F
:1015800008900220079000200690439880B20699A8
:10159000CDE9001071480068406808AB0490079AD4
:1015A000449910F0F8F80590059810B9059851B0D5
:1015B00000BD6A48006840680490449910F082FABF
:1015C0004FF4FA7004F05CFE64480068FFF78CFF8B
:1015D0004FF4FA5004F054FE00BF6048006808F071
:1015E00086FC5F4988422BD05C48006808F084FC88
:1015F00030BB5A48006840680146029003A822F0B8
:10160000D9FE182203A93DA81DF0F8FF18223DA914
:1016100037A81DF0F3FF37AB3DAA26A94F48006855
:10162000FFF74EFD4D48006880680146019002A812
:1016300015F083FB1C2202A930A81DF0DFFF18E083
:101640004648006880680146019002A815F075FBC5
:101650001C2202A930A81DF0D1FF1C2230A929A804
:101660001DF0CCFF29AB30AA26A93C480068FFF743
:1016700027FDDDED260A9DED4B0A30EE600A8DED6B
:10168000080A08981CF084FACDE92401DDED270A48
:101690009DED4C0A30EE600A8DED080A08981CF0AA
:1016A00077FACDE922019DED280AF1EE400A9DED81
:1016B0004D0A30EE600A8DED080A08981CF068FAB1
:1016C000CDE920014E981CF063FA9FED270B53ECF7
:1016D000102BCDE906019DED060B51EC100B1CF013
:1016E00065F9CDE91E0150981CF052FA9FED1E0BD2
:1016F00053EC102BCDE906019DED060B51EC100BC0
:101700001CF054F9CDE91C011448006808F0EFFB07
:10171000134988423ED0114800684068089022F082
:10172000E7FD8DED180ACDED190A8DED1A1ACDEDF4
:101730001B1A18A8FFF77FFD8DED060ACDED070AED
:101740008DED081A089813E000000000000000402A
:10175000000000000000F0BFA0860100180000207B
:10176000000A0103B075020811DD52A246DF913F65
:1017700003901CF00DFA1FED040B53EC102BCDE978
:1017800004019DED040B51EC100B1CF081F9CDE927
:10179000120128E0FE4800688068089015F0D0F932
:1017A0008DED140ACDED150A8DED161ACDED171A33
:1017B00014A8FFF740FD8DED060ACDED070A8DED6B
:1017C000081A089803901CF0E3F91FED190B53EC6D
:1017D000102BCDE904019DED040B51EC100B1CF016
:1017E00057F9CDE912010020119010900F900E9042
:1017F00002200D909FEDE70A8DED090AE44800688C
:1018000008F075FBE449884203D19FEDE40A8DEDB1
:10181000090A9DED4B0AB5EEC00AF1EE10FA14DD8F
:10182000DDED4B0A9DED0D0AB8EEC00AF4EEC00ADC
:10183000F1EE10FA02D29DED4B0A03E09DED0D0A88
:10184000B8EEC00A8DED0C0A23E09DED4B0AB5EE13
:10185000C00AF1EE10FA18D20D98404200EE100ABC
:10186000F8EEC00A9DED4B0AF4EEC00AF1EE10FA54
:1018700002D29DED4B0A05E00D98404200EE100AA1
:10188000B8EEC00A8DED0C0A03E09FEDC50A8DEDA0
:101890000C0A9DED4C0AB5EEC00AF1EE10FA14DD0B
:1018A000DDED4C0A9DED0D0AB8EEC00AF4EEC00A5B
:1018B000F1EE10FA02D29DED4C0A03E09DED0D0A07
:1018C000B8EEC00A8DED0B0A23E09DED4C0AB5EE93
:1018D000C00AF1EE10FA18D20D98404200EE100A3C
:1018E000F8EEC00A9DED4C0AF4EEC00AF1EE10FAD3
:1018F00002D29DED4C0A05E00D98404200EE100A20
:10190000B8EEC00A8DED0B0A03E09FEDA50A8DED40
:101910000B0A9F48006808F0EAFA9F49884208D0FD
:10192000DDED350A9DED4D0A30EE800A8DED0A0A97
:1019300007E0DDED350A9DED4D0A30EE800A8DEDB4
:101940000A0AE0E11FED780B53EC102B9DED1E0B06
:1019500051EC100B1CF09CF8CDE906019DED060B37
:1019600051EC100B1CF058F9089089480068C068C9
:101970000790DDED081A9DED0A1ADDED0B0A9DEDCD
:101980000C0A0DF0D6FB479880B2089004F078FC62
:1019900011994798084411907D48006808F0A7FA0B
:1019A0007D49884245D07A48006808F0A5FAE0BB36
:1019B000774800684068089022F09AFC8DED180A7C
:1019C000CDED190A8DED1A1ACDED1B1A18A8FFF7E7
:1019D00032FC8DED060ACDED070A8DED081A089848
:1019E00005901CF0D5F8CDE91201694800684068FF
:1019F0000146029003A822F0DDFC182203A93DA8AD
:101A00001DF0FCFD37AB3DAA26A961480068FFF731
:101A100057FB5F48006880680146019002A815F0F6
:101A20008CF91C2202A930A800E002E01DF0E6FDBE
:101A300030E0574800688068089015F081F88DED17
:101A4000140ACDED150A8DED161ACDED171A14A84E
:101A5000FFF7F1FB8DED060ACDED070A8DED081AB3
:101A6000089805901CF094F8CDE9120148480068E8
:101A700080680146019002A815F05FF91C2202A9B6
:101A800030A81DF0BBFD29AB30AA26A9404800684C
:101A9000FFF716FBDDED260A9DED4B0A30EE600ADE
:101AA0008DED080A08981CF073F8CDE92401DDEDEE
:101AB000270A9DED4C0A30EE600A8DED080A089861
:101AC0001CF066F8CDE922019DED280AF1EE400AEE
:101AD0009DED4D0A30EE600A8DED080A08981CF065
:101AE00057F8CDE920010D981CF041F8CDE9060129
:101AF0009DED240B20F016FB8DED040B9DED060BE8
:101B000053EC102B9DED040B51EC100B1CF054F812
:101B100006D29DED240B51EC100B1CF07DF80C90BF
:101B20000D981CF024F8CDE906019DED220B20F064
:101B3000F9FA8DED040B9DED060B53EC102B9DED8A
:101B4000040B51EC100B1CF037F806D29DED220B64
:101B500051EC100B1CF060F80B900D48006808F079
:101B6000C6F90D49884258D14F981CF011F8CDE9BB
:101B700006019DED240B20F0D5FA8DED040B9DEDB3
:101B8000060B53EC102B9DED040B51EC100B09E0F0
:101B9000180000208FC2F53D000A01039A99993F71
:101BA000000000001CF008F837D24F981BF0F0FF3F
:101BB000CDE906019DED220B20F0B4FA8DED040B6A
:101BC0009DED060B53EC102B9DED040B51EC100B0F
:101BD0001BF0F2FF21D29DED1E0B53EC102B9DED5F
:101BE000120B51EC100B1BF0DBFECDE904019DED57
:101BF000040B20F097FA8DED060B9DED1C0B53ECBA
:101C0000102B9DED060B51EC100B1BF0D5FF04D2F1
:101C1000479910980844109069E04F981BF0B8FF5E
:101C2000CDE906019DED240B20F07CFA8DED040B2F
:101C30009DED060B53EC102B9DED040B51EC100B9E
:101C40001BF0BAFF4DD24F981BF0A2FFCDE9060161
:101C50009DED220B20F066FA8DED040B9DED060B39
:101C600053EC102B9DED040B51EC100B1BF0A4FF5B
:101C700037D209981BF08CFFCDE906019DED200BB2
:101C800020F050FA8DED040B9DED060B53EC102B5C
:101C90009DED040B51EC100B1BF08EFF21D29DED3E
:101CA0001E0B53EC102B9DED120B51EC100B1BF087
:101CB00077FECDE904019DED040B20F033FA8DEDA4
:101CC000060B9DED1C0B53EC102B9DED060B51EC00
:101CD000100B1BF071FF04D2479910980844109024
:101CE00005E0109818B147990F9808440F9046994D
:101CF0000F98884202DD002010900F9045991098AF
:101D0000884200DB04E0499911988842FFF61AAE38
:101D100000BF4048006808F0EAF83F49884213D005
:101D20000EE03C480068C06808900DF006FB47983C
:101D300080B2089004F0A4FA47990E9808440E90D7
:101D400045990E988842ECDB49991198884217DB37
:101D500032A020F02DFA2F48006808F0C8F82E496C
:101D600088420AD02B48006840680890449910F0D7
:101D7000CBF84FF4FA7004F083FA2C48007816E49C
:101D80002448006808F0B3F8234988420AD0214863
:101D9000006840680890449910F0B6F840F6B830F2
:101DA00004F06EFA2248007801E470B500230A229C
:101DB0000121032015F068FF1E4908600623242234
:101DC0000221032015F060FF1B49086000231A461A
:101DD0000321084615F058FF184908601848007894
:101DE00000F00100002814D1154820F02FFB002836
:101DF0000FD000250C2020F0B5F904460125002164
:101E000016F0A4F9044600250E4804600C48AFF310
:101E1000008070BD18000020000A01035461736B3C
:101E20002074696D656F7574210A0000ED870208E2
:101E3000EC870208400000204400002048000020F9
:101E40003C060020400600202DE9FE438146012685
:101E50000A24FD480068029002274FF00008FB4961
:101E6000CDE90084096802AB3A46486831460FF074
:101E700092FC054615B92846BDE8FE83F34909687A
:101E8000486831460FF01EFE4FF4FA5004F0F8F99E
:101E90000120F1E730B52DED028B85B005462846CF
:101EA00024F0D3FC044620E0641C216908461BF0A2
:101EB0006FFE41EC180B8DED028BA068E168CDE957
:101EC000000120686168641E41EC100B53EC102B7C
:101ED000DFA020F06DF9DD490968496A00231A4640
:101EE0004868214614F0C8F85A34284624F0A9FC62
:101EF000A042D9D105B0BDEC028B30BD9FEDDE0A0A
:101F000010EE101A40F8151F00218180C180017267
:101F1000417464214182017D21F00F010175017D31
:101F200021F0F00101751538002108E0002300F1CF
:101F30002A025354103202EB41021380491C10292B
:101F4000F4DB70472DE9F0472DED0C8B98B0064679
:101F50008846B0EE408AF0EE608A1546344617A8EF
:101F600024F01BF907463946204624F015F90446AB
:101F7000002020606060A06000BF264628461BF05D
:101F8000F6FD41EC1A0B53EC1A2B9FEDBC0B51ECF8
:101F9000100B1BF07DFD41EC190B002088F80000B0
:101FA0004146304624F055FC012476E0B146A4F1C8
:101FB000010A484624F049FCCAEB0A1101EB410131
:101FC00000EB410007466846FFF798FFE0B28DF846
:101FD000000020461BF0CBFD53EC192B1BF0E6FC58
:101FE00041EC1C0BB0EE4C0AF0EE6C0A20F02CFF1A
:101FF000B0EE40BAF0EE60BA53EC182B51EC1B0B6C
:102000001BF0D4FC41EC1A0B57F8010F796841EC36
:10201000100B53EC102B51EC1A0B1BF020FCCDF8DD
:102020000100CDF8051020461BF0A1FD53EC192B43
:102030001BF0BCFC41EC1C0BB0EE4C0AF0EE6C0A41
:1020400020F072FFB0EE40BAF0EE60BA53EC182BFD
:1020500051EC1B0B1BF0AAFC41EC1A0BB868F96899
:1020600041EC100B53EC102B51EC1A0B1BF0F7FB4F
:10207000CDF80900CDF80D1038697F1E00EE100A6A
:10208000F7EE000A30EE200A10EE100ACDF811002B
:102090006946304624F0DDFB641CAC4286DB88F8E0
:1020A00000504146304624F0D4FB18B0BDEC0C8BF8
:1020B000BDE8F08730B52DED068BABB005460C467C
:1020C000B0EE409AF0EE609AB0EE418A4FF4FA50CA
:1020D00004F0D6F814A8FFF711FF5C48006807F079
:1020E00006FF6849884232D058480068416801A814
:1020F00022F060F9182201A90EA81DF07FFADDE98F
:102100001001CDF85100CDF85510DDE90E01CDF8E4
:102110005900CDF85D1018EE100ACDF8610018EEE8
:10212000100A1BF035FD41EC1A0B8DED02AB9DED55
:102130000E0B8DED000B9DED101BB0EE410AF0EE85
:10214000610A53EC102B50A020F032F831E03F48E8
:1021500000688168684614F0F0FD1C22694607A8F3
:102160001DF04CFADDE90701CDF85100CDF855100E
:10217000DDE90901CDF85900CDF85D1018EE100A1F
:10218000CDF8610018EE100A1BF002FD41EC1A0BAD
:102190008DED02AB9DED090B8DED000B9DED071B49
:1021A000B0EE410AF0EE610A53EC102B36A01FF09E
:1021B000FFFF2246B0EE490AF0EE690A14A928464C
:1021C000FFF7C0FE2BB0BDEC068B30BDB2EE040AAB
:1021D00010EE101AC01C40F8021CB1EE040A10EEFA
:1021E000101AC0F80210002181710121C171002173
:1021F00001724172012181720021C1729FED2C0B8D
:1022000052EC101BC16002619FED290B52EC101BB8
:10221000416182619FED180A10EE101AC161C01E63
:10222000704710B52DED048B96B004460748006842
:1022300007F05DFE1349884246D004480068FFF766
:1022400003FE00B938E03FE0B47502081800002032
:10225000576179706F696E7420637265617465642B
:1022600020617420284C4C41293A202566200925FC
:1022700066200925660A200000000000182D44543D
:10228000FB211940000A0103576179706F696E7470
:10229000206372656174656420617420284C4C4130
:1022A000293A20256620092566200925660A0000AE
:1022B0000000000000000000E5A01FF079FF0020F2
:1022C00016B0BDEC048B10BD09A8FFF77FFF601CA2
:1022D000C0B28DF824009FEDE69BB2EE048A09A8F7
:1022E0000090E548006801230022416A01A80EF031
:1022F000D9FB4FF4FA7003F0C3FFDF490968486A5D
:102300000EF0FEFCDDA01FF053FFB0EE481AB0EE59
:10231000490AF0EE690A214606A8FFF7CBFEE0A0C5
:102320001FF046FF06A8FFF7B5FDE3A01FF040FF32
:10233000D1490968496A4868CF490968496A4968C2
:10234000096800228B68114698474FF4FA7003F031
:1023500097FFDFA01FF02CFFC749096848680121DB
:102360000FF0D2FD40F6B83003F08AFF06A824F043
:1023700097FA0120A4E710B52DED068B96B0044620
:10238000BD48006807F0B3FDD84988420CD0BA4870
:102390000068FFF759FD38B9ADA01FF009FF002014
:1023A00016B0BDEC068B10BD00200090B24800684E
:1023B00001231A46416A02A80EF074FBAE4909686F
:1023C000486A0EF09DFCAC48006807F090FDC749D4
:1023D000884226D0A8480068416801A821F0EAFF99
:1023E000182201A910A81DF009F920461BF0BFFB17
:1023F00041EC180B9DED122BB0EE421AF0EE621A72
:102400009DED102BB0EE420AF0EE620A9A4909687F
:10241000496AB0EE482AF0EE682A88680DF045FF58
:1024200025E0954800688168684614F086FC1C2207
:10243000694609A81DF0E2F820461BF098FB41EC24
:10244000180B9DED092BB0EE421AF0EE621A9DEDCD
:102450000B2BB0EE420AF0EE620A87490968496A1E
:10246000B0EE482AF0EE682A88680DF01EFFFEF7ED
:10247000C1FA9FA01FF09CFE7F490968496A8868DD
:102480007D490968496A8968096800228B68114694
:1024900098474FF4FA7003F0F3FE4FF47A6003F0BC
:1024A000EFFE9EA01FF084FE73490968496A8868A0
:1024B00071490968496A8968096800228B6911466F
:1024C000984741F2883003F0DBFE98A01FF070FEC1
:1024D00069490968496A886867490968496A896871
:1024E000096800220B6A114698474FF47A6003F09E
:1024F000C7FE20461BF03BFB41EC190B9FED8D0BFB
:1025000053EC102B1BF052FA41EC180B53EC182B28
:102510008AA01FF04DFE20461BF029FB41EC1A0B50
:102520009FED840B53EC102B1BF040FA41EC190B80
:102530001BF072FB08EE100A4F490968496A002235
:1025400088681146B0EE480A0DF062FC42F2107045
:1025500003F096FE84A01FF02BFE01208DF81C00D6
:10256000B1EE040A10EE100ACDF81D0042490968C8
:10257000496A00231A46886807A90DF0AFFB42F2AA
:10258000107003F07DFE44F6206003F079FE83A016
:102590001FF00EFE38490968496A8868364909689B
:1025A000496A8968096800220B69114698474FF407
:1025B0007A7003F065FE7BA01FF0FAFD2E480068DC
:1025C00007F095FC4949884209D02B4909684868B9
:1025D00001210FF099FC40F6B83003F051FEFEF7F0
:1025E000D0FBDDE670B500230A220121032015F09F
:1025F0004BFB6E490860062324220221032015F0BC
:1026000043FB6B49086000231A460321084615F076
:102610003BFB684908606848007800F0010000282A
:1026200014D165481FF012FF00280FD000250C20A0
:102630001FF098FD04460125002115F087FD044692
:1026400000255E4804605C48AFF3008070BD000068
:102650004661696C656420746F20736574207570C1
:1026600020537562736372697074696F6E210A001A
:102670008DEDB5A0F7C6B03E18000020496E697414
:1026800069616C697A696E6720576179706F696EEC
:1026900074204D697373696F6E2E2E0A000000005E
:1026A0004372656174696E6720576179706F696EF6
:1026B00074732E2E0A00000055706C6F6164696E91
:1026C0006720576179706F696E74732E2E0A00004F
:1026D0005374617274696E6720576179706F696EA7
:1026E00074204D697373696F6E2E0A00000A01032E
:1026F00053746172742077697468206465666175CB
:102700006C7420726F746174696F6E20726174658D
:102710003A203135206465672F730000506175736E
:102720006520666F722035730A000000526573756C
:102730006D650A00000000000000F83F55706461FC
:1027400074652072616469757320746F20312E3551
:10275000783A206E657720726164697573203D2038
:1027600025302E33660A0000557064617465206858
:102770006F74706F696E7420726F746174696F6EBC
:1027800020726174653A206E6577207261746520ED
:102790003D2035206465672F730A000053746F7005
:1027A0000A0000004C616E640A0000005000002026
:1027B00054000020580000203C0600204006002065
:1027C00010B52DED068B84B0044694ED020A10EE90
:1027D000101A08461BF0DCF941EC180B94ED010AC5
:1027E00010EE101A08461BF0D3F941EC190B94EDCA
:1027F000000A10EE101A08461BF0CAF941EC1A0B39
:102800008DED028B8DED009B53EC1A2BFEA01FF07B
:10281000CFFC04B0BDEC068B10BD1CB5044694ED96
:10282000000ABDEEC00A10EE100A00B2ADF80200B8
:1028300094ED010ABDEEC00A10EE100A00B2ADF828
:10284000040094ED020ABDEEC00A10EE100A00B2B8
:10285000ADF80000207B8DF807009DF806008DF88C
:1028600006009DF80600217C0843C0B28DF80600E2
:102870009DF80600217D40EA4100C0B28DF80600B7
:102880009DF80600A17D40EA8100C0B28DF80600E7
:102890009DF80600617D40EAC100C0B28DF80600D7
:1028A000E74909684869694615F00DF84FF47A6000
:1028B00003F0E6FC1CBD00B5B5B0002022909FEDF2
:1028C000E11ADFEDE00A9FEDDF0A2FA81DF01AFAEA
:1028D0009FEDDC1ADFEDDB0A9FEDDA0A099032A8E2
:1028E0001DF010FA089000200190029003900490CF
:1028F00000900998D0ED022A90ED012AD0ED001A3F
:10290000089890ED021AD0ED010A90ED000A00231C
:102910001A46194616A81DF0FCF99FEDCA1ADFEDFC
:10292000C90A9FEDC80A13A81DF0ECF99FEDC51A5E
:10293000DFEDC40A9FEDC30A10A81DF0E3F90020E3
:102940000D900A200C90BE48006807F0D0FABE49EE
:1029500088422AD0BD4800680990022008900020D3
:1029600007900C9880B20799CDE90010B448006830
:10297000406809AB0590089A0D990EF00CFF06907F
:10298000069810B9069835B000BDAD48006840689B
:1029900005900D990FF096F84FF4FA7003F070FC63
:1029A0004FF4FA6003F06CFC00BFA9481FF000FC74
:1029B000A348006807F09BFAA349884230D0A0489A
:1029C00000684068069021F0B7FD8DED070ACDED57
:1029D000080A8DED091A9DED080A8DED130A984835
:1029E00000684068069021F0A7FD8DED070ACDED47
:1029F000080A8DED091A9DED070A8DED140A90481D
:102A000000684068069021F097FD8DED070ACDED36
:102A1000080A8DED091A9DED090A8DED150A35E0BC
:102A20008748006880680146019002A814F089FA7E
:102A300002A80FC8CDE90823CDE906019DED060ADD
:102A40008DED130A7E48006880680146019002A857
:102A500014F077FA02A80FC8CDE90823CDE90601E2
:102A60009DED070A8DED140A7548006880680146DF
:102A7000019002A814F065FA02A80FC8CDE9082356
:102A8000CDE906019DED080A8DED150A1598039014
:102A90001BF07EF8CDE90801149803901BF078F83C
:102AA000CDE90601139803901BF072F8CDE90401FB
:102AB000DDE90801CDE90201DDE90601CDE900010A
:102AC0009DED040B53EC102B62A01FF071FB9FEDEA
:102AD0005D1ADFED5C0A9FED5B0A2FA81DF012F96D
:102AE000099000200123CDE90130039004901420C7
:102AF00000900998D0ED022A90ED012AD0ED001A3D
:102B00009DED151ADDED140A9DED130A00231A46FA
:102B1000194623A81DF0FDF830220146089016A89A
:102B20001CF06CFD16A8FFF778FE59481FF040FB1B
:102B30004348006807F0DBF94349884230D04048F9
:102B400000684068069021F0F7FC8DED070ACDED96
:102B5000080A8DED091A9DED080A8DED100A384816
:102B600000684068069021F0E7FC8DED070ACDED86
:102B7000080A8DED091A9DED070A8DED110A3048FE
:102B800000684068069021F0D7FC8DED070ACDED76
:102B9000080A8DED091A9DED090A8DED120A7DE0F6
:102BA0002748006880680146019002A814F0C9F91E
:102BB00002A80FC8CDE90823CDE906019DED060A5C
:102BC0008DED100A1E48006880680146019002A839
:102BD00014F0B7F902A80FC8CDE90823CDE9060122
:102BE0009DED070A8DED110A1548006880680146C1
:102BF000019002A814F0A5F902A80FC8CDE9082396
:102C0000CDE9060146E000004E65772047696D6218
:102C1000616C20726F746174696F6E20616E676C95
:102C200065206973205B2025302E33662C202530EB
:102C30002E33662C2025302E3366205D0A0A0000D4
:102C40001800002000000000000A0103B875020807
:102C5000544F0508496E697469616C2047696D625B
:102C6000616C20726F746174696F6E20616E676C45
:102C7000653A205B2025302E33662C2025302E33FC
:102C8000662C2025302E3366205D0A0A00000000E5
:102C9000005105089DED080A8DED120A00200190F3
:102CA00002900390049014200090DDED122A9DED17
:102CB000112ADDED101A9DED151ADDED140A9DEDBA
:102CC000130A4FF4E163C822002123A81DF021F864
:102CD00030220146099016A81CF090FC16A8FFF7B8
:102CE0009CFDFE48006807F002F9FD49884230D09B
:102CF000FA4800684068069021F01EFC8DED070A36
:102D0000CDED080A8DED091A9DED080A8DED100A2A
:102D1000F24800684068069021F00EFC8DED070A2D
:102D2000CDED080A8DED091A9DED070A8DED110A0A
:102D3000EA4800684068069021F0FEFB8DED070A26
:102D4000CDED080A8DED091A9DED090A8DED120AE7
:102D500035E0E248006880680146019002A814F05E
:102D6000F0F802A80FC8CDE90823CDE906019DEDD2
:102D7000060A8DED100AD948006880680146019066
:102D800002A814F0DEF802A80FC8CDE90823CDE9A7
:102D900006019DED070A8DED110AD0480068806894
:102DA0000146019002A814F0CCF802A80FC8CDE9A2
:102DB0000823CDE906019DED080A8DED120A10A841
:102DC000FFF7FEFCC7A01FF0F3F9CDA01FF0F0F94C
:102DD000C2480068006909900BF0BFFDCDA01FF04C
:102DE000E7F9D8481FF0E4F91FED6A1A5FED6B0AA6
:102DF0001FED6C0A2FA81CF085FF0990002001230D
:102E0000CDE9013003900490142000900998D0ED92
:102E1000022A90ED012AD0ED001A9DED151ADDED84
:102E2000140A9DED130A0023C74A194623A81CF073
:102E300070FF30220146089016A81CF0DFFB16A890
:102E4000FFF7EBFCA548006807F051F8A449884259
:102E500030D0A24800684068069021F06DFB8DEDEF
:102E6000070ACDED080A8DED091A9DED080A8DEDD2
:102E7000100A9A4800684068069021F05DFB8DEDCD
:102E8000070ACDED080A8DED091A9DED070A8DEDB3
:102E9000110A924800684068069021F04DFB8DEDC4
:102EA000070ACDED080A8DED091A9DED090A8DED91
:102EB000120A35E08948006880680146019002A83E
:102EC00014F03FF802A80FC8CDE90823CDE90601A8
:102ED0009DED060A8DED100A804800688068014665
:102EE000019002A814F02DF802A80FC8CDE908231C
:102EF000CDE906019DED070A8DED110A77480068BE
:102F000080680146019002A814F01BF802A80FC8BF
:102F1000CDE90823CDE906019DED080A8DED120AE1
:102F200010A8FFF74DFC6FA01FF042F987A01FF01B
:102F30003FF96A480068006909900BF015FD884860
:102F40001FF036F987A01FF033F96420ADF83A007E
:102F50003220ADF83C006FF0C700ADF838004FF4F8
:102F60007A600B9064200A90002009900FE05B4883
:102F7000006840690EA9089014F0BFFC0A9880B25E
:102F8000089003F07DF9DDE90901084409900B99E7
:102F900009988842EBDB5148006806F0A8FF5049C9
:102FA000884230D04D4800684068069021F0C4FA4D
:102FB0008DED070ACDED080A8DED091A9DED080A81
:102FC0008DED100A454800684068069021F0B4FA7B
:102FD0008DED070ACDED080A8DED091A9DED070A62
:102FE0008DED110A3D4800684068069021F0A4FA72
:102FF0008DED070ACDED080A8DED091A9DED090A40
:103000008DED120A35E03548006880680146019070
:1030100002A813F096FF02A80FC8CDE90823CDE956
:1030200006019DED060A8DED100A2C4800688068A7
:103030000146019002A813F084FF02A80FC8CDE951
:103040000823CDE906019DED070A8DED110A2348FD
:10305000006880680146019002A813F072FF02A880
:103060000FC8CDE90823CDE906019DED080A8DEDD5
:10307000120A10A8FFF7A4FB49A01FF099F89FEDD2
:103080004E1ADFED4D0A9FED4C0A2FA81CF03AFEB8
:10309000099000200123CDE9013003900490142011
:1030A00000900998D0ED022A90ED012AD0ED001A87
:1030B0009DED151ADDED140A9DED130A00231A4645
:1030C000194623A81CF025FE30220146089016A8B8
:1030D0001CF094FA16A8FFF7A0FB6FE01800002080
:1030E000000A0103456E73757265205344206361C5
:1030F00072642069732070726573656E742E0A00A5
:1031000054616B696E6720706963747572652E2EE9
:103110000A000000436865636B20444A4920474F1A
:1031200020417070206F72205344206361726420CC
:10313000666F722061206E657720706963747572A6
:10314000652E0A00B45005080CFEFFFF537461722F
:1031500074696E6720766964656F2E2E0A00000020
:10316000EC4F050853657474696E6720526F6C6C80
:10317000207261746520746F2031302C2050697486
:103180006368207261746520746F20352C2059614A
:1031900077205261746520746F202D32302E0A0022
:1031A000526573657474696E6720706F73697469B2
:1031B0006F6E2E2E2E0A0000000000006748006887
:1031C00006F095FE6649884230D064480068406841
:1031D000069021F0B1F98DED070ACDED080A8DEDCD
:1031E000091A9DED080A8DED100A5C4800684068D8
:1031F000069021F0A1F98DED070ACDED080A8DEDBD
:10320000091A9DED070A8DED110A544800684068BF
:10321000069021F091F98DED070ACDED080A8DEDAC
:10322000091A9DED090A8DED120A39E04B48006834
:1032300080680146019002A813F083FE03A80DC820
:103240000299CDE90823CDE906109DED060A8DED22
:10325000100A4248006880680146019002A813F0F5
:1032600070FE02A90EC90598CDE9072306910990C1
:103270009DED070A8DED110A384800688068014607
:10328000019002A813F05DFEDDE90403DDE90212FE
:10329000CDE90803CDE906129DED080A8DED120A6D
:1032A00010A8FFF78DFA2FA01EF082FF2B480068B0
:1032B000006909900BF05FFB4FF47A7002F0E0FFB9
:1032C0002DA01EF075FF2548006806F010FE244969
:1032D00088420AD021480068406809900D990EF094
:1032E00013FE40F6B83002F0CBFF0120FFF74BBBD6
:1032F00070B500230A220121032014F0C5FC2A49DD
:103300000860062324220221032014F0BDFC274973
:10331000086000231A460321084614F0B5FC24492E
:1033200008602448007800F00100002814D12148EA
:103330001FF08CF800280FD000250C201EF012FF83
:1033400004460125002114F001FF044600251A4817
:1033500004601848AFF3008070BD00001800002022
:10336000000A010353746F7070696E672076696498
:10337000656F2E2E2E0A0000436865636B20444A59
:103380004920474F20417070206F722053442063C2
:1033900061726420666F722061206E6577207669A5
:1033A00064656F2E0A0000006000002064000020A9
:1033B000680000203C060020400600200FB42DE9E4
:1033C000F04389B00446609FBDF8460010380228DB
:1033D00065D80D2211A904A81CF010F9204606F0AA
:1033E00086FDBD49884204D09DF85100CDF81D00EE
:1033F00003E0BDF85100CDF81D009DF820008DF8C8
:10340000000004A80FC80FF011FA48B1B3480190AA
:103410009DF820008DF8000004A80FC80FF07DFF74
:103420009DF844008DF808009DF845008DF80900CE
:1034300012988078072809D00222A94902A81AF018
:1034400008F988B11298807801280DD10520ADF8CF
:103450000C00BDF81D0080B2ADF80E00042203A9D7
:10346000E0690DF097FD19E012988078082808D0DF
:1034700002229B4902A81AF0ECF878B112988078E1
:1034800060B90620ADF80C00BDF81D0080B2ADF8A3
:103490000E00042203A9E0690DF07CFD19E021F083
:1034A0005DFA814614F0E1FE064621F057FA8046A7
:1034B000ED208A4B8BA231460090404614F081FEED
:1034C00005469DF84C20006889A1836828469847E6
:1034D00000BF09B0BDE8F0035DF814FB0FB42DE99F
:1034E000F04F87B00546609F89480088CDF81500E9
:1034F0004FF00108284606F034FB8146BDF846002F
:103500001038022809D8BDF85100CDF815000D2259
:1035100011A902A81CF072F819E021F01FFA8346E5
:1035200014F0A3FE064621F019FA8246A420794B36
:103530006CA231460090504614F043FE04469DF8BC
:103540004C2000686AA183682046984700BFDDF8D8
:10355000150071490988884206D10022AFF2830123
:10356000284606F0B6FB25E0DDF815006B49098812
:10357000884206D10022AFF29B01284606F002FBEA
:1035800018E012988078012803D10220ADF80400D9
:1035900005E01298807810B90320ADF80400BDF85A
:1035A000150080B2ADF80600042201A9E8690DF00B
:1035B000F1FC00BF07B0BDE8F00F5DF814FB0FB4DD
:1035C00070B50646549DBDF82140022C06D0032C50
:1035D0000CD0052C12D0062C44D129E00022AFF2E9
:1035E00003114F48006806F074FB3CE00022AFF284
:1035F00013114B48006806F0C5FA34E048480068EB
:1036000006F075FC3449884209D045490968002311
:10361000AFF25722C86807210BF029FA07E04049AA
:1036200009680022C868AFF26B210BF0A1FB1AE019
:103630003B48006806F05BFC2749884209D03849BE
:1036400009680023AFF28B22C86808210BF00FFA3B
:1036500007E0334909680022C868AFF29F210BF0E8
:10366000E7FB00E000BF00BF70BC5DF814FB70B565
:1036700000230A220121032014F006FB29490860D7
:10368000062324220221032014F0FEFA26490860B2
:1036900000231A460321084614F0F6FA234908606D
:1036A0002348007800F00100002814D120481EF0C3
:1036B000CDFE00280FD000250C201EF053FD04463F
:1036C0000125002114F042FD04460025194804603C
:1036D0001748AFF3008070BD000A0103D9750208D6
:1036E000EA7A02084552524F524C4F470000000000
:1036F00041434B20697320657863657074696F6E10
:103700002C2073657175656E63652025640A000061
:1037100002760208BA7502089E760208A0760208B0
:1037200018000020700000207400002078000020A5
:103730003C0600204006002070B52DED088B9EB0A1
:1037400000244FF4FA651426FE48006814228168AC
:1037500007A813F0ABFDBBE0FA490968886813F0CD
:1037600017FC1D90F74800688168684613F0E5FA79
:103770001C22694616A81BF041FFF24800688168C8
:1037800004A813F0B8FB04A807C813AB07C3ED499E
:103790000968886813F01EFA8DED100ACDED110A44
:1037A0008DED121AE7490968886813F0C9F98DEDA3
:1037B0000C0ACDED0D0A8DED0E1ACDED0F1A214636
:1037C000E1A01EF0F5FCE4A01EF0F2FC9DF87410E0
:1037D000E4A01EF0EDFC9DED1A0A10EE101A08464A
:1037E0001AF0D6F941EC180B8DED028B9DED180BFC
:1037F0008DED000B9DED161BB0EE410AF0EE610A57
:1038000053EC102BDCA01EF0D3FCBDF9520000904D
:10381000BDF95030BDF94E20BDF94C10DFA01EF0AF
:10382000C7FC9DED120A10EE101A08461AF0B0F906
:1038300041EC180B9DED110A10EE101A08461AF013
:10384000A7F941EC190B9DED100A10EE101A08466D
:103850001AF09EF941EC1A0B8DED028B8DED009B59
:1038600053EC1A2BD8A01EF0A3FC9DED0F0A10EE0E
:10387000101A08461AF08CF941EC180B9DED0E0A4F
:1038800010EE101A08461AF083F941EC190B9DED61
:103890000D0A10EE101A08461AF07AF941EC1A0BCC
:1038A0009DED0C0A10EE101A08461AF071F941EC61
:1038B0001B0B8DED048B8DED029B8DED00AB53EC5E
:1038C0001B2BCBA01EF074FCD7A01EF071FC641D56
:1038D000AC42FFF641AFD7A01EF06AFC01201EB03B
:1038E000BDEC088B70BD2DE9F04F2DED088BA1B01C
:1038F000002020904FF47A601F9000201E90012439
:10390000D04800681D9001201C9000268D49CDE90B
:10391000006409681DAB48681C9A1E990DF03BFFB6
:1039200005462DB9284621B0BDEC088BBDE8F08FC7
:103930008449096848681E990EF0C4F84FF4FA707B
:1039400002F09EFC01201E900A24BE48001D006863
:103950001B9001201C9000267A49CDE9006409687B
:103960001BAB48681C9A1E990DF015FF05460DB952
:103970002846D8E77349096848681E990EF0A2F8EE
:103980004FF4FA7002F07CFC02201E903224AD4805
:10399000083000681A9002201C9000266949CDE981
:1039A000006409681AAB48681C9A1E990DF0F3FE72
:1039B00005460DB92846B6E76249096848681E9968
:1039C0000EF080F84FF4FA7002F05AFC03201E90BB
:1039D000C8240020199001201C9000265949CDE9E7
:1039E0000064096819AB48681C9A1E990DF0D3FE53
:1039F00005460DB9284696E75249096848681E9958
:103A00000EF060F84FF4FA7002F03AFC4FF4FA50FE
:103A100002F036FC4FF47A674FF4FA7800200690F3
:103A200048490968086814F09FFE83460068C16829
:103A30005846884710EB070A00BF424909684868A2
:103A400020F02CFE18903F4800684168684620F03E
:103A5000B1FC1822694612A81BF0D0FD3948006855
:103A6000416803A820F004FD03A807C80FAB07C3F3
:103A700034480068416802A820F012FF02A80FC86D
:103A8000CDE90D23CDE90B012E490968486820F0E6
:103A90002FFC8DED070ACDED080A8DED091ACDED4D
:103AA0000A1A69A020991EF083FB6CA01EF080FB0F
:103AB0006DA018991EF07CFB9DED160A10EE101AF1
:103AC00008461AF065F841EC180B8DED028B9DED60
:103AD000120B8DED000B9DED141BB0EE410AF0EEC4
:103AE000610A53EC102B66A01EF062FBBDF9420088
:103AF0000090BDF94030BDF93E20BDF93C106AA0F0
:103B00001EF056FB9DED0D0A10EE101A08461AF035
:103B10003FF841EC180B9DED0C0A10EE101A084608
:103B20001AF036F841EC190B9DED0B0A10EE101A45
:103B300008461AF02DF841EC1A0B8DED028B8DED35
:103B4000009BC7E018000020436F756E74657220FB
:103B50003D2025643A0A00002D2D2D2D2D2D2D0AF6
:103B600000000000466C69676874205374617475C6
:103B700073203D2025640A00506F736974696F6E6D
:103B800020284C4C4129203D20252E33662C202511
:103B90002E33662C20252E33660A00005243204324
:103BA0006F6D6D616E64732028722F702F792F7482
:103BB000687229203D2025642C2025642C20256452
:103BC0002C2025640A00000056656C6F63697479C7
:103BD000202876782C76792C767A29203D20252E7F
:103BE00033662C20252E33662C20252E33660A00C2
:103BF0004174746974756465205175617465726E81
:103C0000696F6E2028772C782C792C7A29203D201A
:103C1000252E33662C20252E33662C20252E336648
:103C20002C20252E33660A002D2D2D2D2D2D2D0A0D
:103C30000A000000446F6E65207072696E74696ED0
:103C400067210A00F07502080A0A436F756E7465F1
:103C500072203D2025643A0A000000000A0ABFAA2B
:103C6000CABC0A0A000000000A0A466C6967687448
:103C700020537461747573203D2025640A00000090
:103C80000A0A506F736974696F6E20284C4C412981
:103C9000203D20252E33662C20252E33662C202512
:103CA0002E33660A000000000A0A524320436F6D5B
:103CB0006D616E64732028722F702F792F74687273
:103CC00029203D2025642C2025642C2025642C20CF
:103CD00025640A0053EC1A2B59A01EF069FA9DEDD9
:103CE0000A0A10EE101A084619F052FF41EC180BA0
:103CF0009DED090A10EE101A084619F049FF41EC33
:103D0000190B9DED080A10EE101A084619F040FF35
:103D100041EC1A0B9DED070A10EE101A084619F037
:103D200037FF41EC1B0B8DED048B8DED029B8DED70
:103D300000AB53EC1B2B4DA01EF03AFA5AA01EF01C
:103D400037FA5CA01EF034FA4FF4FA7002F098FAD9
:103D500059490968086814F007FD81460068C16880
:103D60004846884710EB0800069006985045FFF437
:103D700064AEAFF240101EF01BFA50A01EF018FA0D
:103D80004D490968486800210EF0BEF840F6B83089
:103D900002F076FA48490968486801210EF0B4F843
:103DA00040F6B83002F06CFA4349096848680221CD
:103DB0000EF0AAF840F6B83002F062FA3E490968FF
:103DC000486803210EF0A0F840F6B83002F058FA27
:103DD0000120A8E570B500230A220121032013F079
:103DE00053FF3B490860062324220221032013F0DD
:103DF0004BFF3849086000231A460321084613F098
:103E000043FF354908603548007800F0010000287C
:103E100014D132481EF01AFB00280FD000250C20C8
:103E20001EF0A0F904460125002114F08FF9044684
:103E300000252B4804602948AFF3008070BD0000C6
:103E40000A0A56656C6F63697479202876782C7637
:103E5000792C767A29203D20252E33662C20252E9C
:103E600033662C20252E33660A0000000A0A4174AE
:103E7000746974756465205175617465726E696FDB
:103E80006E2028772C782C792C7A29203D20252E1D
:103E900033662C20252E33662C20252E33662C20CD
:103EA000252E33660A0000000A0ABDE1CAF80A0A94
:103EB000000000000A0D0000180000202D2D2D2DFF
:103EC0002D2DCDEAB3C92D2D2D2D2D2D0A0000004D
:103ED0008000002084000020880000203C06002094
:103EE0004006002000B58DB01348019013480C9097
:103EF00000231A4601A91248006807F0F7F80DB030
:103F000000BD10B500230A220121032013F0BCFEDE
:103F10000C490860062324220221032013F0B4FE7A
:103F20000949086000231A460321084613F0ACFE35
:103F30000649086010BD0000DA421000A000002011
:103F4000180000209000002094000020980000201D
:103F500000F07F0200EE102AB8EEC00AF0EE400A30
:103F600000EE101AB8EE400AB0EE401A00F08002DF
:103F700062B1DFED2E1AB0EE410A00EEA10AF1EEB9
:103F8000401A9FED2B2A81EE820A7047DFED271A37
:103F9000B0EE410A00EEA10A9FED252AC0EE021AFA
:103FA000B0EE610AF1E770B504460D4620680128BD
:103FB00002D10020206000E070BD2079FA2802D1F3
:103FC0006079FB2800D0F7E7A07910B1012809D16A
:103FD00005E000221146284606F0BDFF03E0FFF78A
:103FE00081FF00E000BF00BF00BFE5E710B5002380
:103FF0000A220121032013F047FE0E490860062320
:1040000024220221032013F03FFE0B490860002305
:104010001A460321084613F037FE0849086008488D
:10402000002101604162816200BF10BD0000804339
:104030000000C842E4000020E8000020EC0000205E
:10404000DC1800200020FE490860091D0860091DD9
:104050000860091D0860FA4924310860091D0860DC
:10406000091D0860F748F649383108600020091D2D
:104070000860704701460020012900D011B9F24BB9
:10408000197000E0262070470146ED4A121D1068A5
:1040900020F0FF0008431060704770B5044606E04A
:1040A000E7483430056805F0450000B100E0F7E767
:1040B00000BF042004F0C6F820B1042004F0CDF8BD
:1040C000032070BD012004F0BDF820B1012004F0F0
:1040D000C4F80120F5E7DA4810300068A04201D0AA
:1040E0001020EEE740F2FF5004F0B7F8D448143047
:1040F000006808210840C0B2E3E72DE9FC4107460B
:104100000D46002600240020009001900820CF4991
:10411000086010204860402088600020C8604FF48C
:1041200080600861084603F0FAFF1020FFF7B5FF32
:10413000044614B12046BDE8FC81C548008800044F
:10414000C249086037204860402088600020C8606D
:104150004FF480600861084603F0E1FF3720FFF765
:104160009CFF04460CB12046E5E74FF0FF30B9490B
:10417000086008204860302088600220C860002065
:10418000086101204861084603F0F5FF0020AF49AF
:10419000086033204860402088600020C8604FF4E9
:1041A00080600861084603F0BAFF3320FFF775FF0F
:1041B00004460CB12046BEE70DE04FF4001004F0B9
:1041C00041F840B19E48803000684DF82600761CCA
:1041D000022E00D307E09A483430006840F22A618A
:1041E00008400028E9D000BF082004F02BF820B1D7
:1041F000082004F032F804209DE7022004F022F8A1
:1042000020B1022004F029F8022094E7202004F0D5
:1042100019F820B1202004F020F806208BE74FF495
:10422000007004F00FF828B14FF4007004F015F896
:10423000072080E740F2FF5004F00FF800980006D6
:10424000009901F47F4140EA0120009901F47F01C7
:1042500040EA1120009940EA116068600198000668
:10426000019901F47F4140EA0120019901F47F01A5
:1042700040EA1120019940EA1160286020465AE77F
:104280007CB50546002400200090019000260DB169
:10429000022600E000266A481430006800F0007032
:1042A00008B10E207CBD6A49098888B26946FFF7CB
:1042B00024FF04460CB12046F4E7019800F4802066
:1042C00060B3634800880004604908603720486094
:1042D000402088600020C8604FF480600861084674
:1042E00003F01DFF3720FFF7D8FE04460CB120462F
:1042F000D8E7564806600620544948604020886048
:104300000020C8604FF480600861084603F007FF92
:104310000620FFF7C2FE04462046C3E72520C1E77A
:1043200070B5044600254C480078032802D12725A3
:10433000284670BD4848007838B1474800780128C1
:1043400003D045480078022819D1B4F5805F02D126
:1043500027252846EDE7E0B2FFF792FF054675B93D
:104360003748001D006820F4C0503549091D086019
:104370000846006820430860084600680860284630
:10438000D7E710B504463148046007202F4948603C
:10439000402088600020C8604FF4806008610846B3
:1043A00003F0BDFE0720FFF778FE10BDF0B5014613
:1043B00000200022284B1B7881F85630244B1B88A4
:1043C000A1F85430254B1B681A0E93090B70C2F3E9
:1043D00083034B7002F003038B70204B1B68C3F305
:1043E0000742CA701D4B1B88C3F307220A711B4B7F
:1043F0001A784A715B681A0E1301CB80174B5B6801
:10440000C3F30742CB8843EA1213CB8002F00F03B9
:104410000B72124B9B88C3F30722D3094B72C2F372
:1044200080138B72C2F34013CB72C2F300130B7371
:1044300000234B73084B1B78C3B1074B1B780FE06D
:10444000002C0140FF07C000FC00002020190020C4
:10445000F800002034190020F40000204C1900203E
:10446000012B03D0FE4B1B78032B4FD193071B0D61
:104470000B61FC4B1A790B6943EA82030B61F94B20
:104480009B681A0E0B6943EA92130B61C2F3C203D5
:104490000B7502F007034B75F24B9B68C3F30742A1
:1044A00053098B75C2F38203CB7593075B0F0B76B1
:1044B000EC4B1B89C3F307220B7E43EAD2130B7626
:1044C0000B695B1C0024C1E912340B7E9B1C012488
:1044D00004FA03F3DC17D1E91256A5FB037C06FBB3
:1044E00003C305FB0433C1E912730C7A0123A34013
:1044F0000B650024D1E912650B6DA6FB037C05FB5F
:1045000003C306FB0433C1E912732EE0D44B1B78BE
:10451000022B2AD1D34B1A7993069B0A0B61D14BFC
:104520009B681A0E0B6943EA02230B61CD4B9B6813
:10453000C3F307420B6913430B61CA4B1B89C3F3D7
:1045400007220B695B1C4FF40074A3FB04464FF475
:1045500080630025A4FB037C06FB03C304FB053337
:10456000C1E912734FF400730B65C2F3801301F8B5
:10457000193F93065B0E4B70BA4B1A7A4B7843EA9D
:10458000D2134B7002F07F038B70B64BDB681A0EB0
:10459000D309CB70C2F341130B71C2F382034B7189
:1045A00093071B0F8B71AF4BDB68C3F307428B790B
:1045B00043EA92138B71C2F34013CB7100230B7249
:1045C00002F001034B72A74B9B89C3F30722D30967
:1045D0008B72C2F38013CB72C2F340130B73C2F31E
:1045E00000134B73C2F381038B7302F00303CB738D
:1045F0009C4B1A7B53080B7401234B749A4B1B681A
:104600001A0ECA741939984B1B68C3F30742140277
:10461000CC85954B1B88C3F30722CB8D1343CB85E9
:10462000914B1A7814060C635B681A0E0B6B43EA05
:1046300002440C638C4B5B68C3F307420B6B43EA89
:1046400002240C63884B9B88C3F307220B6B134334
:104650000B63854B1A7934235A54834B9B681A0E8B
:1046600035235A54804B9B68C3F3074214068C636E
:104670007D4B1B89C3F307228B6B43EA02448C6397
:10468000794B1A7A8B6B43EA02248C63764BDB6896
:104690001A0E8B6B13438B63734BDB68C3F30742B8
:1046A0003C235B5C43EA12143C235C5413071C0D4F
:1046B000CC876D4B9B89C3F30722CB8F1343CB87EA
:1046C000694B1A7B540840235C54012441235C54F9
:1046D000F0BD70B500264FF4803505E063480468EE
:1046E00004F0450000B103E0281EA5F10105F5D155
:1046F00000BF15B104F0040028B10326042003F024
:10470000ACFD304670BD012003F09CFD18B10126C0
:10471000012003F0A2FD40F2FF5003F09EFD304661
:10472000F0E72DE9F04105460E464FF0000805E0A0
:104730004E48076807F0450000B100E0F8E700BF09
:10474000042003F07FFD28B1042003F086FD032040
:10475000BDE8F081012003F075FD20B1012003F0D8
:104760007CFD0120F4E7414824380068A84201D0CC
:104770001020EDE740F2FF5003F06FFD3B4820387A
:10478000046804F4604018B9200C30804046DFE72C
:1047900004F4005008B11320DAE704F4804008B1B3
:1047A0001020D5E704F4004008B10F20D0E74046C0
:1047B000CEE738B500240120009003F0AAFC10B920
:1047C0002524204638BD26480078042825D000201E
:1047D0002749086002204860C02088600020C86027
:1047E0004FF480600861084603F099FCFFF771FF01
:1047F00004460CB12046E5E71C48203800681A49F9
:1048000008601A481C380068486018481838006862
:104810008860164814380068C8601148007858B19C
:104820000F480078012807D00D480078062803D0EB
:104830000B480078022821D100200D490860032090
:104840004860402088600020C8604FF480600861A4
:10485000084603F064FC69460320FFF762FF09E0A5
:10486000F40000204C1900205C190020342C014079
:104870002019002004460CB12046A3E7FE4800782A
:10488000032816D1BDF800000004FC49086003208D
:104890004860402088600020C8604FF48060086154
:1048A000084603F03CFCFFF714FF04460CB1204619
:1048B00088E7F148007804282AD0BDF80000F049C4
:1048C0000860BDF800000004EC4908600920486059
:1048D000C02088600020C8604FF4806008610846EE
:1048E00003F01DFCFFF7F5FE04460CB1204669E716
:1048F000E4480068E4490860E248001D0068486038
:10490000E048083000688860DE480C300068C86005
:10491000002057E710B506E0DA482030046804F0BC
:10492000450000B100E0F7E700BF042003F08AFC77
:1049300020B1042003F091FC032010BD40F2FF5091
:1049400003F08BFC0020F8E770B500264FF48035AB
:1049500006E0CC482030046804F0450000B103E0D4
:10496000281EA5F10105F4D100BF15B104F0040023
:1049700028B10326042003F070FC304670BD04F01B
:10498000400018B10026402003F067FC3046F5E7F0
:1049900070B500254FF4803404E0802003F052FC11
:1049A00000B103E0201EA4F10104F6D100BF0CB950
:1049B000032070BD40F2FF5003F04FFC2846F8E79B
:1049C0002DE9F0470027002400260025A046A14637
:1049D0007620AE4908750020086048608860C8608D
:1049E0000861084603F071FB032003F08EFBA54825
:1049F0001038006840F48070A2491039086000BF88
:104A000012E000209D49086048608860C8604FF44B
:104A100080600861084603F082FBFFF7B9FF044697
:104A200004B903E0781CC7B24A2FEADB00BF14B117
:104A30002046BDE8F0874FF4D57090490860082003
:104A40004860402088600020C8604FF480600861A2
:104A5000084603F064FBFFF777FF044624B9012002
:104A6000854908704FF0804900208449086037204C
:104A70004860402088600020C8604FF48060086172
:104A8000084603F04CFB3720FFF707FB0446002CD9
:104A90004BD134E00020794908603720486040203D
:104AA00088600020C8604FF480600861084603F009
:104AB00036FB3720FFF7F1FA04460CB12046B8E781
:104AC000734849EA00006D49086029204860402089
:104AD00088600020C8604FF480600861084603F0D9
:104AE0001EFBFFF717FF04460CB12046A1E76548FF
:104AF0000668012080EAD67080F001086D1CB8F1CC
:104B0000000F03D14FF6FF708542C3D34FF6FF70FD
:104B1000854202D31B2420468BE706F08040061E08
:104B200032D00220544908702EE01CE05948534905
:104B3000086001204860402088600020C8604FF471
:104B400080600861084603F0EAFAFFF7E3FE0446D6
:104B50000CB120466DE74B480668012080EAD6700C
:104B600080F001086D1CB8F1000F03D14FF6FF7003
:104B70008542DBD34FF6FF70854202D31B242046CB
:104B800057E703203C490870204652E73EB5002411
:104B900000250121404802F09AFA0121C80202F0E2
:104BA000DAFA0121C80202F040FB4FF4F8500190FC
:104BB00002208DF808008DF8090000208DF80A0009
:104BC00001208DF80B0001A9344801F0BDFF04203D
:104BD000019001A9324801F0B7FF0C2208212F48AB
:104BE00002F03DF80C2209212C4802F038F80C2282
:104BF0000A212A4802F033F80C220B21274802F040
:104C00002EF80C221146254802F029F80C22022128
:104C1000234802F024F800214FF4006002F005FB65
:104C2000FFF710FA31208DF8000000208DF8010008
:104C30008DF8020001208DF80300684601F0D7FCD2
:104C4000FFF7BEFE044614B9FFF7B3FD04461CB9D6
:104C50001448FFF7ABFB044634B91249B1F85410BD
:104C60000804FFF78EFB044624B94FF40060FFF7F9
:104C700057FB0446E4B117E0F4000020201900209F
:104C8000F8000020142C01404C19002008190020C5
:104C9000000010800080FF800C00400000080240EF
:104CA000000C024070190020FE480078032812D141
:104CB000FD4890F8560020B1FB4890F856000128B6
:104CC00001D1022500E000252846FFF7DDF901208B
:104CD000FFF7D0F9044620463EBD10B5002003F092
:104CE00014FA002010BD70B590B004460E4615466B
:104CF00000BFEE4801F00FFE0028FAD1EB4801F0AA
:104D0000E1FC4FF000600190E948029003940495A3
:104D10000020059006904FF4806007908000089076
:104D20008000099000200A904FF440300B9004203E
:104D30000C9003200D904FF400000E9080100F9007
:104D400001A9DA4801F060FD2021D84801F0ACFD4E
:104D50000121D64801F092FD10B070BD014600203F
:104D600002E04910421CD0B20129FAD170472DE966
:104D7000F84F8146174698460A9C4FF0000AD346E2
:104D80004D464FF0FF36B9F1000F02D12620BDE8A5
:104D9000F88F0020C64954390860C24800780228BC
:104DA00005D10402780A40EAC8574FEA6828002073
:104DB000C04988604860401E0860012048610020AA
:104DC000C8600861084603F0D6F9B9486C38006835
:104DD00000F0007008B10E20D9E7002C21DDB4F5F9
:104DE000006F1EDC601E2040D8B92046FFF7B6FFDA
:104DF0000090B14804601020AF49486040208860AE
:104E00000020C8604FF480600861084603F087F90D
:104E10001020FFF742F98246BAF1000F03D0504646
:104E2000B5E72620B3E700980001A249886008464C
:104E300044604FF0FF300860012048610220C860E4
:104E400000200861084603F096F99B48076011208E
:104E500099494860402088600020C8604FF4806015
:104E60000861084603F05BF91120FFF716F9824646
:104E7000BAF1000F01D0504689E790480078002829
:104E800056D117E04FF4004003F0DCF970B14FF059
:104E9000000B05E08648006845F82B000BF1010B7C
:104EA000BBF1080FF6D32035854E03E00EB9042080
:104EB0006DE7761E7E484C38006840F22A61084053
:104EC0000028DFD0082003F0BDF920B1082003F04E
:104ED000C4F904205BE7022003F0B4F920B10220FA
:104EE00003F0BBF9022052E7202003F0ABF920B118
:104EF000202003F0B2F9062049E74FF4007003F0D8
:104F0000A1F928B14FF4007003F0A7F907203EE79C
:104F100003E06748006828602D1D4FF4001003F07F
:104F200091F90028F5D140F2FF5003F096F939E0ED
:104F300062480078012835D1002062490870624932
:104F40000870624908705A484438006840F22A31B3
:104F5000084357494439086055485438006840F0C0
:104F60000800534954390860002221464846FFF79B
:104F7000BAFE00E0761E4D485838006800F0006028
:104F800038B95248007820B94E48007808B9002E48
:104F9000F0D10EB90420FAE64A48007810B1494829
:104FA00090F800A05046F2E62DE9FF5F17469846BC
:104FB000DDE90E464FF00009CA464FF0FF3544497F
:104FC0000098086000203A49543908603548007854
:104FD000022805D10402780A40EAC8574FEA682837
:104FE0000020344988604860401E08600120486104
:104FF0000020C8600861084603F0BDF82C486C38F2
:10500000006800F0007018B10E2004B0BDE8F09FF9
:10501000002C21DDB4F5006F1EDC601E2040D8B9E5
:105020002046FFF79BFE8346234804601020224958
:105030004860402088600020C8604FF480600861AC
:10504000084603F06CF81020FFF727F88146B9F105
:10505000000F03D04846D8E72620D6E7012E7DD999
:1050600006FB04F0B0F1007F01D32620CDE74FEA24
:105070000B101049886006FB04F048604FF0FF30C9
:105080000860012048610220C860002008610846CD
:1050900003F071F808480760122007494860402073
:1050A000886017E0F4000020701900205864024066
:1050B000802C01403419002020190020FC00002021
:1050C000FFFF7F00FE000020FD000020FF00002009
:1050D000000100200020C8604FF48060086108468D
:1050E00003F01DF81220FEF7D8FF8146B9F1000F3A
:1050F00001D0484689E7FB48007800287DD11DE0B3
:105100004FF4004003F09EF8A0B14FF0000A07E012
:10511000F5480068F549096841F82A000AF1010AD2
:10512000BAF1080FF4D3F14800682030EF49086065
:10513000EF4D03E00DB9042067E76D1EEA484C38D7
:10514000006840F22A3108400028D9D0082003F036
:1051500079F830B1082003F080F800E09CE00420EA
:1051600053E7022003F06EF820B1022003F075F837
:1051700002204AE7202003F065F820B1202003F048
:105180006CF8062041E74FF4007003F05BF828B19B
:105190004FF4007003F061F8072036E709E0D248C9
:1051A0000068D24909680860D0480068001DCF49EE
:1051B00008604FF4001003F045F80028EFD14FF4D9
:1051C000807003F03FF820B3CA48007838B1C9486E
:1051D0000078012803D0C7480078022819D10020A0
:1051E000C54908600C204860402088600020C860E5
:1051F0004FF480600861084600E00FE002F08FFF86
:105200000C20FEF74AFF8146B9F1000F01D0484655
:10521000FBE640F2FF5003F020F83DE0B148007893
:10522000012839D10020B54908700120B44908701F
:105230000020B4490870AC484438006840F22A3174
:105240000843A94944390860A7485438006840F029
:105250000800A5495439086006FB04F100220098B3
:10526000FFF741FD00E06D1EA748006800F00060F8
:1052700008B9002DF7D10DB90420C6E600BFA1483A
:10528000007818B99D4800780028F8D09B4800782D
:1052900010B19A4890F800904846B6E61CB504460E
:1052A000002001900090994800880004924908600D
:1052B0000D204860402088600020C8604FF4806066
:1052C0000861084602F02BFF87484C3800680090C0
:1052D00003E085484C3800680090009800F04500D5
:1052E0000028F6D0012002F0ADFF20B1012002F02D
:1052F000B4FF01201CBD042002F0A4FF20B1042053
:1053000002F0ABFF0320F5E77748703800680D28FE
:1053100001D01020EEE740F2FF5002F09EFF7248ED
:105320006C38006801900198C0F343202070002081
:10533000E0E72DE9FF5F86B017469846149D0026EA
:10534000002005900490002481460390824602903C
:105350000195DDF818B0DDF818B0BBF1000F03D1EE
:1053600026200AB0BDE8F09F00205F49543908604C
:10537000674988604860401E08600120486100203D
:10538000C8600861084602F0F6FE57486C380068AD
:1053900000F0007008B10E20E3E7564800780228BC
:1053A00005D10502780A40EAC8574FEA6828002D5F
:1053B0001FDDB5F5006F1CDC681E2840C8B9284603
:1053C000FFF7CCFC05904C48056010204A49486026
:1053D000402088600020C8604FF480600861084663
:1053E00002F09DFE1020FEF758FE06461EB1304624
:1053F000B7E72620B5E74548008800043E49086025
:105400000D204860402088600020C8604FF4806014
:105410000861084602F083FE0D20FEF73EFE0646B8
:105420000EB130469DE730486C38006803904FF06D
:10543000FF341CE0641E3548008800042E490860D3
:105440000D204860402088600020C8604FF48060D4
:105450000861084602F063FE0D20FEF71EFE0646B8
:105460000EB130467DE720486C3800680390039801
:1054700000F4807008B9002CDCD10CB9292070E749
:105480001D48076018201C494860402088600020A3
:10549000C8604FF480600861084602F040FE1820A2
:1054A000FEF7FBFD06460EB130465AE700201449D0
:1054B00008700598000116498860084645604FF05D
:1054C000FF300860012048610020C860086108467C
:1054D00002F051FE4FF0FF340248007800286ED1F0
:1054E0005CE00000FC000020802C01400001002056
:1054F000FFFF7F00F400002020190020FE000020A4
:10550000FD000020FF00002000640240F8000020A1
:10551000341900204FF4804002F094FEC8B3019883
:10552000A0EB0900202821D20198A0EB090000F08F
:10553000030020B90198A0EB0900800804E001985D
:10554000A0EB09008008401C02904FF0000A09E01F
:10555000F749DBF8000008600AF1010A0BF1040BBF
:1055600009F1040902988245F2D30FE04FF0000AD6
:1055700005E05BF82A00EE4908600AF1010ABAF179
:10558000080FF6D30BF1200B09F120096FF040440E
:1055900004E0FFE70CB90420E3E6641EE4484C385D
:1055A000006840F21A6108400028B3D0082002F0D9
:1055B00049FE28B1082002F050FE0420D1E621E087
:1055C000022002F03FFE20B1022002F046FE02203F
:1055D000C7E6102002F036FE20B1102002F03DFE9A
:1055E0000520BEE64FF4007002F02CFE28B14FF407
:1055F000007002F032FE0720B3E640F2FF5002F0E6
:105600002CFE43E0CB48007801283FD10020CA4956
:105610000870CA490870CA490870C548443800680B
:1056200040F21A310843C2494439086040222946F1
:105630000698FFF758FBBE485438006840F0080051
:10564000BB495439086000E0641EBE48006800F0A1
:10565000006008B9002CF7D11CB9FFF797FA0420B5
:105660007FE64FF0FF3400E0641EB548007820B9B3
:10567000B148007808B9002CF6D10CB9042070E6C6
:10568000AD48007810B1AC4800786AE640F2FF50AF
:1056900002F0E3FD04A8FFF701FE064603E004A8BC
:1056A000FFF7FCFD06463EB99DF810000728F6D02E
:1056B0009DF810000628F2D0304652E62DE9FF5F33
:1056C00084B0DDE9124700260020039002900025F7
:1056D00080468146019007FB04FBDDF810A0DDF851
:1056E00010A0BAF1000F03D1262008B0BDE8F09F4A
:1056F00000208F4954390860934988604860401EF3
:105700000860012048610020C8600861084602F076
:1057100032FD87486C38006800F0007008B10E2038
:10572000E3E78A480078022808D10402DDE906018F
:10573000400A40EAC1504912CDE90601002C1FDDA4
:10574000B4F5006F1CDC601E2040C8B92046FFF78E
:1057500005FB03907E48046010207D49486040208E
:1057600088600020C8604FF480600861084602F03D
:10577000D6FC1020FEF791FC06461EB13046B4E779
:105780002620B2E7012F7CD907FB04F0B0F1007F9F
:1057900001D32620A9E76D48007838B16B4800781E
:1057A000012803D06948007802282DD16948008873
:1057B0000004674908603720486040208860002066
:1057C000C8604FF480600861084602F0A8FC3720EA
:1057D000FEF763FC06460EB1304686E75C4807607C
:1057E00017205B494860402088600020C8604FF463
:1057F00080600861084602F092FC1720FEF74DFC1D
:1058000006460EB1304670E75149069808601920E7
:105810004860402088600020C8604FF480600861C4
:10582000084602F07CFC1920FEF737FC06460EB154
:1058300030465AE7039800014349886007FB04F0AB
:1058400048604FF0FF300860012048610020C860C8
:105850000861084602F08FFC36480078002866D1BF
:10586000451E41E04FF4804002F0ECFCB8B3ABEBD6
:105870000800202820D2ABEB080000F0030028B974
:1058800000E0E6E0ABEB0800800803E0ABEB0800CB
:105890008008401C01904FF0000909E02449DAF823
:1058A0000000086009F101090AF1040A08F104087E
:1058B00001988145F2D30FE04FF0000905E05AF856
:1058C00029001B49086009F10109B9F1080FF6D355
:1058D0000AF1200A08F120086FF0404504E0FFE7D4
:1058E0000DB9042001E76D1E11484C38006840F2E4
:1058F0001A3108400028B5D0082002F0A3FC20B1DE
:10590000082002F0AAFC0420EFE6022002F09AFC34
:1059100020B1022002F0A1FC0220E6E6102002F0F5
:1059200091FCC8B1102002F098FC0520DDE649E0AA
:10593000802C0140FC000020FE000020FD00002023
:10594000FF0000200064024034190020F400002011
:1059500020190020F80000204FF4007002F072FCC3
:1059600028B14FF4007002F078FC0720BDE64FF438
:10597000807002F067FC00B3F248007838B1F1485B
:105980000078012803D0EF480078022815D10020C4
:10599000ED4908600C204860402088600020C86005
:1059A0004FF480600861084602F0B9FB0C20FEF756
:1059B00074FB06460EB1304697E640F2FF5002F007
:1059C0004CFC46E0E1480078012842D10020E04943
:1059D00008700120DF4908700020DF490870DF48A7
:1059E000006840F21A310843DC49086007FB04F103
:1059F00040220498FFF777F9D8481038006840F043
:105A00000800D649103908604FF0FF3500E06D1EE0
:105A1000D348006800F0006008B9002DF7D11DB927
:105A2000FFF7B4F8042060E64FF0FF3500E06D1E8C
:105A3000C948007820B9C648007808B9002DF6D1C9
:105A40000DB9042051E6C248007810B1C048007872
:105A50004BE640F2FF5002F000FC02A8FFF71EFCEC
:105A6000064603E002A8FFF719FC06463EB99DF87A
:105A700008000728F6D09DF808000628F2D0304626
:105A800033E610B54FF4807002F0DCFB80B3B14810
:105A90000078012814D10020AB4908600C20486030
:105AA000402088600020C8604FF48060086108468C
:105AB00002F035FB0C20FEF7F0FAA549087002E071
:105AC0000020A3490870A548001F006840F48070BA
:105AD000A249091F0860081D00684CF23A3188434A
